:020000040000FA
:0400000093EF00F08A
:020004000000FA
:040008000DEF00F008
:040010000D75377DB6
:080018001100F2B411EF00F039
:100020001100F294072AFF0E075CD8B4082A01AA2F
:10003000272AFF0E275CD8B4282A022AC00ED66EC3
:10004000630ED76E0CC00EF00DC00FF08D8033EC38
:1000500000F08D9024C021F023C022F08D8245EC69
:1000600000F08D9211003EEC00F0FF0E0F6E000EBE
:100070000E5CD8B412000E0633EF00F0000E0F5CD9
:10008000D8B412000F063EEF00F050EC00F0FF0E67
:10009000226E000E215CD8B41200210645EF00F05C
:1000A000000E225CD8B41200220650EF00F0720E4F
:1000B000D36E980ED56E1200D09EF19EF28EF28C09
:1000C000F18CF18AF184F28A1200030EC26E0E0ED8
:1000D000C16E0C0EC06E928092829296929894900D
:1000E000949294949496959E93969398939A939CB5
:1000F000939E9498949A949C9384938293809690E0
:100100001200946A936A926A956A966A016A026A10
:10011000036A046A056A066A076A086A276A286A1F
:10012000256A266A120081EC00F05CEC00F065ECB8
:1001300000F057EC00F001809EEF00F08B988B8A66
:100140008B8C01B66BEC01F081A2D0EF00F081A0A6
:1001500042EF01F0AEEF00F09EEF00F0C294C282D9
:10016000C2B2B0EF00F0C4CF03F0066AC284C2820C
:10017000C2B2B8EF00F0C4CF04F0056A0198CDEF29
:1001800001F089988B888B9A8B8C01B66BEC01F00F
:1001900081A2D0EF00F00188AEEF00F0C1EF00F0D7
:1001A000B6EC02F081B262EF01F0276A286A01869C
:1001B000017062EF01F08B888B8A8B9C01B66BEC2F
:1001C00001F081A042EF01F081A2F7EC00F0C284BF
:1001D0000188EBEF00F00B0E085CD8A4AEEF00F046
:1001E000B80E075CD8A4AEEF00F053EF01F0B6EC08
:1001F00002F081B212000186EA8003C0EEFF04C063
:10020000EEFF08C0EEFF07C0EEFF086A076A276A24
:10021000286AE9CFE8FFFC0B0B6E780E0B62120028
:10022000019262EF01F0000E0B621AEF01F00194EF
:1002300062EF01F08B988B9A8B9C0198EECF03F0C4
:10024000EECF04F0EECF0AF0EECF09F0056A066AB1
:10025000CDEF01F0076A086A08C0E8FF0A5CD8A47D
:100260002CEF01F007C0E8FF095CD8A432EF01F0E1
:10027000E9CFE8FFFC0B0B5CD8A413EF01F001946D
:1002800062EF01F0B6EC02F081B062EF01F0276A94
:10029000286A018601B253EF01F0C1EC02F081A09F
:1002A000018453EF01F0076A086A01B45EEF01F0C0
:1002B0000172E96A01B20B6A62EF01F0E96AEA8051
:1002C00013EF01F001B2DBEF00F001A0C1EF00F08D
:1002D00001B09EEF00F081A06BEF01F081A26BEF07
:1002E00001F00196120001BA7AEF01F005B4898697
:1002F00005A48996059405C0E8FF100FF66EF76A0D
:10030000F86A0800F5CF8CFF81B68C8E26C0E8FF16
:10031000055CD8B490EF01F0276A286A05C026F082
:1003200001B42AEF01F001B2DBEF00F001B09EEF63
:1003300000F006B0A9EF01F006B2A1EF01F0B5EFB1
:1003400001F08A9E8A9C8A9A8A988A968C9EBDEF32
:1003500001F08A9E8A9C8A9A8A988A868C8E8B96CD
:100360008B948B928B90BDEF01F08B968B948B923C
:100370008B908C9E8A96BDEF01F025C0E8FF065C4D
:10038000D8B4C7EF01F0276A286A06C025F001A09B
:10039000C1EF00F00188CDEF01F001B8DEEF01F010
:1003A000640E036471EF02F09B0E03602CEF02F009
:1003B000780E0D6E010E0C6EEEEF01F0640E04640B
:1003C00010EF02F09B0E0460F3EF01F0000E236EBD
:1003D000000E246E0582058073EF01F006940696E8
:1003E000068099EF01F00584BC0E04640AEF02F068
:1003F000DD0E046403EF02F0AA0E236E0C0E246ED1
:10040000058273EF01F0FA0E236E080E246E05804C
:1004100073EF01F0FA0E236E040E246E73EF01F0F9
:10042000420E046026EF02F0210E04601FEF02F07E
:10043000AA0E236E0C0E246E058273EF01F0FA0EE5
:10044000236E080E246E058073EF01F0FA0E236E02
:10045000040E246E73EF01F00682B40E036447EFBE
:1004600002F0CD0E036455EF02F0E60E036463EF75
:1004700002F0069406960698068A8B808B928B94DF
:100480008B96AF0E0D6E020E0C6E99EF01F0068486
:1004900006960698069A8B868B948B928B90D70E35
:1004A0000D6E010E0C6E99EF01F00694068606980B
:1004B000069A8B908B928B848B961E0E0D6E020E7D
:1004C0000C6E99EF01F0069406960688069A8B90BA
:1004D0008B828B948B96640E0D6E020E0C6E99EFD0
:1004E00001F006924B0E03608CEF02F0320E0360B7
:1004F0009AEF02F0190E0360A8EF02F00694069638
:100500000698068A8A988A9A8A9C8A8E6E0E0D6E42
:10051000000E0C6E99EF01F0068406960698069A76
:100520008A888A9A8A9C8A9E460E0D6E010E0C6EEF
:1005300099EF01F0069406860698069A8A988A8AA8
:100540008A9C8A9EFA0E0D6E000E0C6E99EF01F0D9
:10055000069406960688069A8A988A9A8A8C8A9EB3
:10056000B40E0D6E000E0C6E99EF01F02A6A2B6A24
:100570002A2AD8B22B2AC70E2B5CD8B41200B8EFA7
:0E05800002F0026A320E0262C2EF02F01200B6
:020000040030CA
:0100010008F6
:010003001EDE
:010005008179
:0100060001F8
:00000001FF
