:020000040000FA
:0400000009EF00F014
:100008007D826BEC0FF07D921100F3EF0AF0030292
:10001800030104030205536E53C0ADFF1200020E24
:100028002E6E12000A0E2E6E1200000E396E12008D
:0C0038003550120043501200AE50120070
:10020000003132333435363738392A3023312E53E2
:1002100054415254205245434F5244494E472020A6
:1002200020202000322E504C4159205245434F523D
:1002300044494E4753202020202000332E4D4F4468
:100240004946592043555252454E542054494D4534
:100250002000342E53484F572043555252454E5498
:100260002054494D4520202000352E454E44204342
:100270004F4D4D554E49434154494F4E202020008B
:10028000202020202020202020202020202020206E
:1002900020202020202000310000000000414243A7
:1002A0003200004445463300004748493400004AC4
:1002B0004B4C3500004D4E4F3600005051525337D5
:1002C000005455563800005758595A390000A4D3E5
:1002D000010EE8EC0EF0000E3E6E000E3F6E000EBA
:1002E000276E000E286E000E406E000E3C6EEAEC8B
:1002F0000FF012001E0E3B18D8A403D03AC03DF0F8
:1003000012003B2A1200C50E6A6E6B6A17EC0EF0E3
:10031000010EA0EC0FF04204D8A41200020E3D6EB4
:100320001200020E416403D0000E3D6E12003BEC41
:100330000FF00009D8B41200F7EC0EF02A0AD8B476
:10034000F3D7F7EC0EF0230AD8A409D0020E411817
:10035000D8A405D0010E3C6E080E3D6E1200F7ECDD
:100360000EF0230AD8B412001CEC00F00009D8A447
:1003700003D03E50D8A406D042C061F041504BECAF
:100380000AF041068CEC09F03C6E030E3D6E120043
:100390001EEC00F06D6E6D50190FD96EDA6A3CC01C
:1003A000DFFF3C5083EC0BF0412A3E2A040EA0EC08
:1003B0000FF012003BEC0FF00009AED74050170DC4
:1003C000F3500D0F6A6EFFEC0BF0050EA0EC0FF072
:1003D000050E3D6E4204D8A407D03E50D8A404D0E8
:1003E000402A010E3E6E1200020E4218D8A41200DE
:1003F0004006010E3C6E050E3E6E5A0E3D6E12001A
:100400004050D8A403D0280E3D6E12004004D8A45A
:1004100003D03C0E3D6E1200020E4018D8A403D04B
:10042000140E3D6E1200030E4018D8A403D01E0E09
:100430003D6E1200040E4018D8A41200640E3D6EEA
:100440001200F0EC0FF027C054F028C055F0000E59
:10045000566E2EEC0EF0F6EC0FF0090E3D6E12000B
:10046000DEEC0FF00009D8B41200540E0FEC00F0CF
:100470000A0E3D6E1200E4EC0FF00009D8B4120031
:1004800020EC00F04B0AD8A412000B0E3D6E000EBB
:100490003F6E525059EC0EF01200040E3F18D8A4D3
:1004A00003D06DEC0EF01200DEEC0FF00009D8B4B2
:1004B00012003F50190FD96EDA6ADF500FEC00F0CE
:1004C000525059EC0EF03F2A1200AC0E6A6E6B6A65
:1004D00017EC0EF04204D8A41200EAEC0FF0040E60
:1004E0003F6E150E3D6E12003BEC0FF00009D8B4C4
:1004F0001200F7EC0EF02A0AD8B4D3D7F7EC0EF0BE
:10050000230AD8B41200F7EC0EF083EC0BF0412A6A
:100510003F06030E3F18D8A406D0F7EC0EF00A0DE4
:10052000F3CF27F016D0020E3F18D8A405D0F7EC71
:100530000EF0F00F27260DD03F04D8A406D0F7EC1C
:100540000EF00A0DF3CF28F004D0F7EC0EF0F00F08
:1005500028263F50D8B404D0000E746E160E03D077
:10056000000E746E170E736E73C03DF012003BECFC
:100570000FF00009D8A41200020E3F18D8A4B1D77A
:100580003A0E83EC0BF0412AACD73BEC0FF000099C
:10059000D8B410D08CEC09F0230AD8A40BD027C013
:1005A00054F028C055F0000E566E2EEC0EF06DEC97
:1005B0000EF012003BEC0FF00009D8B412008CECE6
:1005C00009F02A0AD8A412006CD7900E6A6E6B6AE2
:1005D00017EC0EF04204D8A41200000ED8EC0FF075
:1005E000525059EC0EF01F0E3D6E12003BEC0FF016
:1005F0000009D8B405D08CEC09F0230AD8B451D73F
:10060000525005EC0DF05650551006E1A00E535C0B
:100610000F0E5458D8A012001E0EE8EC0EF0120077
:100620009E0E6A6E6B6A17EC0EF04204D8A412009C
:10063000000E3F6E290E3D6E1200DEEC0FF0000939
:10064000D8B41200440E0FEC00F02A0E3D6E1200DA
:1006500013EC00F02B0E3D6E1200B8EC0FF0000909
:10066000D8B4120016EC00F02C0E3D6E1200B8EC5F
:100670000FF00009D8B412002D0E3D6E525059EC07
:100680000EF0CCEC0FF0C2821200525005EC0DF0CF
:100690005650551004E17D0E545CD8A00BD051503B
:1006A00059EC0EF0525059EC0EF0D2EC0FF0320E25
:1006B0003D6E1200C2B21200DEEC0FF00009D8B499
:1006C0001200C4500FEC00F0C28212003F50020D25
:1006D000F350800FD96EDA6ADECF6DF0DDCF6EF0A9
:1006E0006DC06FF06EC070F0000E70BEFF0E716EC8
:1006F000726E515005EC0DF06F50535C70505458B1
:100700007150555872505658D8A012003F2A080E02
:100710003F18D8A403D0330E3D6E12003F50750F22
:10072000D96EDA6ADF5097EC0FF0515059EC0EF0A9
:100730001200525005EC0DF05650551006E1200EF7
:10074000535C4E0E5458D8A005D019EC00F0010EA1
:100750003C6EA7D6000E3F6E320E3D6E120014ECBA
:100760000FF00009D8A403D0960E3D6E1200000EC3
:10077000406E000E3E6E3D0E3D6E12004050A8ECE5
:100780000FF03E0E3D6E1200B8EC0FF00009D8B429
:100790001200000E3C6E14EC0FF02ED6B90E6A6EED
:1007A0006B6A17EC0EF04204D8A41200470E3D6E9F
:1007B0001200DEEC0FF00009D8B41200500E0FEC5E
:1007C00000F0480E3D6E1200E4EC0FF00009D8B4C2
:1007D000120020EC00F04B0AD8A412004050C6ECE6
:1007E0000FF0490E3D6E1200B8EC0FF00009D8B4BE
:1007F0001200540E3D6E1200E4EC0FF00009D8B464
:10080000120020EC00F0460AD8A41200070E3F6E3A
:10081000525059EC0EF03F5097EC0FF0550E3D6ED4
:100820001200525005EC0DF05650551006E1A00E86
:10083000535C0F0E5458D8A00CD0020E3F18D8B4F9
:1008400008D03F063F5097EC0FF0525059EC0EF095
:100850001200020E3F18D8A4120019EC00F0010E8D
:100860003C6E010E406E1DD647EC0FF00009D8A477
:10087000120053EC0FF00009D8A412005B0E3D6E7D
:10088000525059EC0EF012003BEC0FF00009D8B4B6
:1008900012D0F7EC0EF0230AD8A40DD0000E3E6E55
:1008A0003C50D8B404D0070EE8EC0EF01200460E0F
:1008B000E8EC0EF0120053EC0FF00009D8B415D09C
:1008C000FF0E3E246D6E6E6AFF0E6E2240506F6EFC
:1008D000706A6D506F5C7050800A716E6E50800A45
:1008E0007158D8B01200402ADCD547EC0FF000094F
:1008F000D8B405D04050D8B412004006D2D53C50F0
:10090000D8B41200525005EC0DF05650551006E1C7
:10091000A00E535C0F0E5458D8A01200050EE8EC40
:100920000EF0010E2524536E000E2620546E000E8C
:10093000566E160E556E37EC0CF053C025F054C0B1
:1009400026F0000E3E6E525059EC0EF01200D10E01
:100950006A6E6B6A17EC0EF04204D8A41200000E07
:100960003F6E650E3D6E1200EAEC0FF0660E3D6EB6
:100970001200000E616E080E4BEC0AF0670E3D6E21
:100980001200F0EC0FF0680E3D6E12003F50190F90
:10099000D96EDA6ADF5083EC0BF03F2A030E3F1862
:1009A000D8A41200690E3D6E1200210E83EC0BF0EC
:1009B000525059EC0EF06A0E3D6E1200525005EC8A
:1009C0000DF05650551006E1400E535C1F0E545862
:1009D000D8A01200A9D44B0E6A6E010E6B6E17ECF4
:1009E0000EF04204D8A41200525059EC0EF0970EAB
:1009F0003D6E1200525005EC0DF05650551006E1B8
:100A0000E00E535C2E0E5458D8A01200525059ECF0
:100A10000EF06DEC0EF012003D506D6E6E6A6E5071
:100A2000000AD8A412006D50000AD8B451D4010AAB
:100A3000D8B469D4030AD8B474D4010AD8B4A8D4F9
:100A4000070AD8B4B7D4010AD8B4B8D4020AD8B4C3
:100A5000D7D40F0AD8B4F5D4010AD8B401D5030A03
:100A6000D8B409D5010AD8B418D51F0AD8B42DD5E1
:100A7000010AD8B439D5030AD8B479D5010AD8B453
:100A800084D50F0AD8B436D4060AD8B49ED5010A44
:100A9000D8B4ACD5370AD8B4C3D5010AD8B4CDD5AB
:100AA000030AD8B4D5D5010AD8B4D7D5070AD8B423
:100AB000DED5010AD8B4E9D51F0AD8B407D6010A91
:100AC000D8B437D60F0AD8B44AD6010AD8B456D605
:100AD000030AD8B459D6780AD8B460D6010AD8B473
:100AE00068D60F0AD8B470D6010AD8B47DD61D0ACC
:100AF000D8B482D6010AD8B494D60F0AD8B4B4D6E2
:100B0000010AD8B4C1D63F0AD8B421D7010AD8B453
:100B10002BD7030AD8B42DD7010AD8B432D70F0A7D
:100B2000D8B434D7010AD8B440D7030AD8B446D7CA
:100B3000FC0AD8B450D7010AD8A412005BD7DFD181
:100B4000FBEC0FF02C50070B030DF350020FD96E86
:100B5000DA6A53C0DEFF54C0DDFFA6B212002C508B
:100B6000070B030DF350020FD96EDA6ADF50536E94
:100B70002C50070B200FA6EC0EF0030E2E6E120069
:100B8000A6B212002C50070B030DF350030FD96EC1
:100B9000DA6ADF50536E2C50070B300FA6EC0EF0C4
:100BA000040E2E6E1200DEEC0FF00009D8B4120015
:100BB0002C50070B030DF350020FD96EDA6ADF5089
:100BC0000FEC00F0050E2E6E1200DEEC0FF00009A7
:100BD000D8B412002C50070B030DF350030FD96E3D
:100BE000DA6ADF500FEC00F0000E2E6E1200E4EC1B
:100BF0000FF00009D8B412002C50070B030DF3506E
:100C0000010FD96EDA6A20EC00F0DF6E0B0E2E6E4B
:100C10001200A6B212002C50070B030DF350010F67
:100C2000D96EDA6ADF50536E2C50070B100FA6EC0A
:100C30000EF02C2A0C0E2E6E1200A6B21200090E17
:100C40002C6004D02CC06CF06D6A04D0000E6D6E68
:100C5000080E6C6E6CC053F0000EA6EC0EF00D0E7C
:100C60002E6E1200A6B21200080E2C6408D02C5072
:100C7000070B080F536E010EA6EC0EF0B5D72C50E3
:100C8000070B536E010EA6EC0EF0AED70A0E536E94
:100C90002D50030DF350010FD96EDA6ADF5096EC38
:100CA0000DF00009D8A403D01F0E2E6E1200DEEC4A
:100CB0000FF00009D8B412000A0E536E2D50030D28
:100CC000F350010FD96EDA6ADF5096EC0DF0300F59
:100CD0000FEC00F0E9D7DEEC0FF00009D8B41200F9
:100CE0000A0E536E2D50030DF350010FD96EDA6AC0
:100CF000DF5044EC0EF0300F0FEC00F0200E2E6EA3
:100D00001200DEEC0FF00009D8B41200000E0FEC58
:100D100000F06AD7A6B01200000EB0EC0FF02D6EF6
:100D20002D28D8B404D0000E6F6E290E03D0000E0B
:100D30006F6E000E6E6E6EC02EF01200A6B0120026
:100D40002C50030DF350010FD96EDA6A2C50100F9E
:100D5000B0EC0FF0DF6E2A0E2E6E1200A6B012005D
:100D60002C50030DF350020FD96EDA6A2C50200F6D
:100D7000B0EC0FF0DF6E2B0E2E6E1200A6B012003C
:100D80002C50030DF350030FD96EDA6A2C50300F3C
:100D9000B0EC0FF0DF6E2C2A2C0E2E6E12002D50B0
:100DA0002C18D8A403D02D0E2E6E1200290E2E6EF4
:100DB0001200A6B01200010EB0EC0FF02C6E14D78A
:100DC000490E83EC0BF00A0E536E2D50030DF350B9
:100DD000010FD96EDA6ADF5096EC0DF00009D8A445
:100DE00003D0340E2E6E1200330E2E6E12000A0E39
:100DF000536E2D50030DF350010FD96EDA6ADF5098
:100E000096EC0DF0300F83EC0BF0EBD70A0E536E1F
:100E10002D50030DF350010FD96EDA6ADF5044EC08
:100E20000EF0300F83EC0BF0350E2E6E1200200EFC
:100E300083EC0BF02D50030DF350020FD96EDA6ADC
:100E4000DECF54F0DDCF55F02D28566E2EEC0EF08F
:100E5000360E2E6E12002D0E83EC0BF0370E2E6E1A
:100E60001200200E83EC0BF0380E2E6E12002D288F
:100E7000D8EC0FF0390E2E6E1200BFEC0FF0000907
:100E8000D8B421D02B50D8A41ED0090E2C6007D086
:100E9000FF0E2C24706E716AFF0E712204D0000EBA
:100EA000716E070E706E2D506A6E6B6A70506A1804
:100EB00004E171506B18D8B406D0010E2B6E3A0EB7
:100EC0002E6E2D2A1200BFEC0FF00009D8B41200CC
:100ED000000E2B6E000E2E6E1200EAEC0FF03B0E91
:100EE0002E6E1200010E616E000E4BEC0AF03C0EED
:100EF0002E6E1200F0EC0FF0320E2E6E12002E50FD
:100F00006A6E6B6A6B50000AD8A412006A50000A1D
:100F1000D8B41200020AD8B413D6010AD8B430D615
:100F2000070AD8B440D6010AD8B44FD60F0AD8B4AD
:100F30005ED6010AD8B46DD6070AD8B47ED6010AA7
:100F4000D8B490D6130AD8B4A1D6010AD8B4C3D65F
:100F50003F0AD8B4D6D6080AD8B4DCD6010AD8B429
:100F6000EDD6030AD8B4FAD6010AD8B407D7070ACF
:100F7000D8B415D7010AD8B41CD71F0AD8B420D7C3
:100F8000010AD8B434D7070AD8B440D7010AD8B474
:100F90004ED7030AD8B45FD7010AD8B462D70F0A74
:100FA000D8B465D7010AD8B468D7030AD8B495D79E
:100FB000010AD8B497D7070AD8A412009BD786D0C5
:100FC00081B681A20DD081AA0BD08A948A8E8A8C98
:100FD0008A88010E346E000E226E000E216E120001
:100FE000040E346E120081B681A2FAD781AAF8D716
:100FF0008A848A9E8A8C8A88020E346E000E226E43
:10100000010E216E120081B681A2EAD781AAE8D72B
:101010008A848A8E8A9C8A88030E346E000E226E21
:10102000020E216E120081B681A2DAD781AAD8D72A
:101030008A848A8E8A8C8A98000E226E030E216E14
:10104000000E346E1200050E346E4D5059EC0EF049
:1010500012004D5005EC0DF056505510541004E19F
:10106000400E535CD8A0120081B681A205D081AA9F
:1010700003D0000E346E1200010E306EB7EC0EF08D
:1010800097EC0FF0060E346E120081A6120081A2BA
:10109000120081AA12004D5059EC0EF0070E346E6A
:1010A00012004D5005EC0DF056505510541004E14F
:1010B000400E535CD8A0120081B681A2E3D781AA6A
:1010C000E1D719EC00F0000E306ED3D73450606ECB
:1010D000616A6150000AD8A412006050000AD8B4B6
:1010E0006FD7010AD8B47FD7030AD8B48CD7010AC6
:1010F000D8B499D7070AD8B4A6D7010AD8B4A9D7C3
:10110000030AD8B4C2D7010AD8A41200CAD762D041
:101110004E5005EC0DF05650551006E1A00E535CF4
:101120000F0E5458D8A012004E5059EC0EF077EC28
:101130000FF01200090E376E12000A0E376E120001
:101140000A0E536E3650020DF350DC0FD96EDA6A78
:10115000DF5096EC0DF0300F83EC0BF00B0E376E7A
:1011600012000A0E536E3650020DF350DC0FD96E8A
:10117000DA6ADF5044EC0EF0300F83EC0BF00C0E0B
:10118000376E12003A0E83EC0BF00D0E376E120024
:101190000A0E536E3650020DF350DD0FD96EDA6A27
:1011A000DF5096EC0DF0300F83EC0BF00E0E376E27
:1011B00012000A0E536E3650020DF350DD0FD96E39
:1011C000DA6ADF5044EC0EF0300F83EC0BF0000EC7
:1011D000376E120037506A6E6B6A6B50000AD8A4E3
:1011E00012006A50000AD8B493D7080AD8B4A2D71C
:1011F000010AD8B4A2D7030AD8B4A2D7010AD8B436
:10120000B0D7070AD8B4BED7010AD8B4C1D7030AE9
:10121000D8A41200CED7696E000E536E000E546E25
:101220002DEC0DF069C046F068C045F0000E436E2D
:1012300043C044F0959C959A9598000E6B6E000EF5
:101240006A6E000E616E000E606E010E636E900E8F
:10125000626EB3EC0DF0030EC2EC0BF0000E616E8B
:10126000000E606E000E636EC80E626EB3EC0DF081
:10127000030EC2EC0BF0000E616E000E606E000EED
:10128000636E040E626EB3EC0DF0030EC2EC0BF055
:10129000000E616E000E606E000E636E040E626ED4
:1012A000B3EC0DF0020EC2EC0BF0000E616E000EFE
:1012B000606E000E636E040E626EB3EC0DF0280ECD
:1012C000E6EC0DF074EC0DF0080EE6EC0DF074ECAD
:1012D0000DF0010EE6EC0DF0000E616E000E606E7A
:1012E000000E636E0C0E626EB3EC0DF074EC0DF03C
:1012F000060EE6EC0DF074EC0DF00F0EE6EC0DF0C2
:101300006A4A6B2A6BBE9DD76B5005E1020E6A5C80
:10131000D8B0120096D71200F7EC0EF0586ED00E2F
:101320005824566E576AFF0E5722575004E1020E9A
:10133000565CD8A00CD0D00E5824566E576AFF0EBB
:101340005722575004E10A0E565CD8A00AD0D00E9E
:101350005824566E576AFF0E572256505710D8A47D
:101360003CD0D00E5824566E576AFF0E5722565066
:101370005710D8A410D0020E2F6402D0010E2F6E89
:101380002F04D8A402D0200E1200020E2F18D8A4C9
:1013900015D0300E12005850060DF350970F2F2421
:1013A000566ED90E562656C0F6FF020EF76E08008E
:1013B000F5500009D8A402D0010E2F6E5850060D2A
:1013C000F350970F2F24566ED90E562656C0F6FFAF
:1013D000020EF76E0800F55012005850120043D06C
:1013E000C2B21200C4CF47F0C284C296C282010EBC
:1013F0004B6E1200C2B21200C4CF48F0C294C28633
:10140000020E4B6E1200030E4B6E4950D8B409D039
:10141000630E47641200970E47601200000E496E7B
:1014200012001E0E486409D0DC0E486006D01E0E65
:10143000476403D0DB0E47641200000E556E1E0E8B
:10144000486405D01E0E476402D0010E556E55C08B
:101450004AF0010E496E1200000E4B6EC28212005D
:10146000000E4B6E12004B50536E546A5450000ADB
:10147000D8A4F6D75350000AD8B4B2D7010AD8B4CA
:10148000B9D7030AD8B4BFD7010AD8B4E5D7070A39
:10149000D8B41200E5D7686E36D06150D8B404D005
:1014A000000E656E400E03D0000E656E000E646E79
:1014B00068506424666E000E6520676E36D068C082
:1014C00066F0676A6104D8A402D0400E05D0020E0F
:1014D0006118D8A404D045506626000E0ED0030E25
:1014E0006118D8A422D04550626E636A400E62260D
:1014F000000E6322625066266350672216D068C0D1
:1015000066F0676A12D04650626E636A6350000AE2
:10151000D8A4F5D76250010AD8B4F1D7030AD8B4D9
:10152000BCD7060AD8B4CBD7EAD774EC0DF0665016
:101530008009E6EC0DF061C044F068C043F0120091
:1015400040D08B941200010E3824606E616A000E48
:101550006122626A61BE62066250636E505005ECA1
:101560000DF06050535C61505458625055586350B0
:101570005658D8A01200505059EC0EF08B84020E31
:10158000396E1200010E3824606E616A000E61220D
:10159000626A61BE62066250636E505005EC0DF0E7
:1015A0006050535C615054586250555863505658BF
:1015B000D8A01200505059EC0EF08B94010E396EE9
:1015C00012003950606E616A6150000AD8A412009E
:1015D0006050000AD8B4B5D7010AD8B4B4D7030A0A
:1015E000D8A41200CFD71A0EF66E1F0EF76E000E9B
:1015F000F86E01EE4BF010EE14F00900F5CFEEFF9F
:10160000E550E150FAE1AE0EF66E190EF76E000EDF
:10161000F86E00EE80F010EE5CF00900F5CFEEFF02
:10162000E550E150FAE1160EF66E000EF76E000E70
:10163000F86E00EE75F010EE08F00900F5CFEEFF41
:10164000E550E150FAE101EE00F04B0EEE6AE806DB
:10165000FDE100EEDCF0120EEE6AE806FDE100EEC0
:1016600001F0520EEE6AE806FDE17D907D92000EDB
:10167000F86E000151EF0DF034D03050D8B421D0C5
:10168000010E336EF7EC0EF0326E010E356E2F50F8
:10169000D8B4120032503118D8A40CD04C5005ECFC
:1016A0000DF05650551006E1A00E535C0F0E545825
:1016B000D8A01200000E356E32C031F0000E2F6E31
:1016C000120032C031F012002F2A020E336E1200C7
:1016D0003050D8A412004C5059EC0EF0000E336E6E
:1016E00012003350606E616A6150000AD8A4120083
:1016F0006050000AD8B4C1D7010AD8B4E5D7030AAC
:10170000D8A41200E5D7696E74EC0DF06950CDECE9
:101710000DF0432A030E4618D8A411D0130E4364CB
:101720001200000E436E442A030E446402D0000EE1
:10173000446E44C061F043504BEC0AF01200020EBC
:101740004618D8A411D0270E43641200000E436E31
:10175000442A010E446402D0000E446E44C061F07D
:1017600043504BEC0AF012004404D8A41200270E98
:10177000436402D0000E436E44C061F043504BEC12
:101780000AF01200546E95969594959295908C98C7
:101790008C9A8C8C8C8C54A603D0536A532A01D01B
:1017A000536A5346534653468C505318F70B5318FD
:1017B0008C6E54A403D0536A532A01D0536A534603
:1017C00053468C505318FB0B53188C6E54A203D005
:1017D000536A532A01D0536A53468C505318FD0B59
:1017E00053188C6E54A003D0536A532A01D0536A05
:1017F0008C505318FE0B53188C6E8C9C120024BE18
:1018000006D0245031E1100E235CD8B02DD02550E5
:1018100023246B6E265024206C6E6CBE15D06C5049
:1018200004E1160E6B5CD8A00FD06A502324252447
:101830006B6EEA0E6B266BC0F6FF020EF76E0800A9
:10184000F55083EC0BF00CD06A50232425246B6EEA
:101850006BC0F6FF020EF76E0800F55083EC0BF03C
:10186000412A234A242A120021EC0FF01200000E14
:10187000586E54AE06D0536C541ED8B0542A010E84
:10188000586E56AE04D0556C561ED8B0562A5550D8
:101890005610D8B418D0010E576E04D0D8905536D3
:1018A0005636572A56AEFAD75550535C56505458B0
:1018B000D8A004D05550535E5650545AD890563242
:1018C0005532572EF1D75850D8B404D0536C541E0B
:1018D000D8B0542A53C053F054C054F01200546E80
:1018E00054A603D0536A532A01D0536A5346534631
:1018F00053468C505318F70B53188C6E54A403D0D6
:10190000536A532A01D0536A534653468C50531896
:10191000FB0B53188C6E54A203D0536A532A01D088
:10192000536A53468C505318FD0B53188C6E54A0B9
:1019300003D0536A532A01D0536A8C505318FE0BBC
:1019400053188C6E1200546E54AE03D0536A532A4F
:1019500001D0536A5346534653468C505318F70BE5
:1019600053188C6E54AC03D0536A532A01D0536A77
:10197000534653468C505318FB0B53188C6E54AA85
:1019800003D0536A532A01D0536A53468C505318DC
:10199000FD0B53188C6E54A803D0536A532A01D000
:1019A000536A8C505318FE0B53188C6E1200E803C8
:1019B000E803E8036009E803E8035802B00443556C
:1019C0005252454E542054494D453A005245434FDA
:1019D0005244494E472E2E2E00004D4F4449465941
:1019E0002054494D453A00504C4159494E472E2EFE
:1019F0002E0000504F5254204E414D453A20006277
:101A0000796520627965200000005F6EF29E1DC03E
:101A10005BF01EC05CF01FC05DF020C05EF0F28E77
:101A20005F50050D000EF324D96E010EF420DA6E1E
:101A3000DECF57F0DECF58F0DECF59F0DECF5AF0D0
:101A400057505B5C536E58505C58546E59505D58FB
:101A5000556E5A505E58566E1200000E566E05D0E6
:101A6000562A0F0E5618D8B412005650050D040E03
:101A7000F324D96E010EF420DA6EDE04D8B4F0D768
:101A80005650050D040EF324D96E010EF420DA6EC3
:101A9000010EDF6E53C0D9FF54C0DAFF56C0DFFF1E
:101AA0001200928AFFEC0DF0D8EC0EF093EC0EF0E1
:101AB000100E686E020E0BEC09F05FEC0FF082EC7A
:101AC0000FF02EEC0FF006EC0FF0A0EC0AF0EFECAC
:101AD00009F0DFEC07F03CEC0BF087EC08F09FEC32
:101AE00005F067EC01F0F1D7958695849582958095
:101AF0008C988C8A000E59EC0EF08C8C8C8C000E1D
:101B000083B6010E606E8C9C8C9C8C8C8C8C8C9C17
:101B10008C9C000E05EC0DF05350541055105610CF
:101B2000D8A412006050D8B41200E7D7546E000E4B
:101B3000566E5350D8B415D0010E556E03D0D890C0
:101B40005336552A53AEFBD7D89056365350545C73
:101B5000D8A003D05350545E5680D8905332552E9F
:101B6000F3D756501200605059EC0EF062C064F08A
:101B700063C065F0000E65BEFF0E666E676E605056
:101B800005EC0DF06450535C655054586650555840
:101B900067505658D8B01200E9D7556E959695946F
:101BA000959295908C888C9A8C8C5550A3EC0CF067
:101BB0008C8C8C9C8C9C8C8C55506FEC0CF08C8C91
:101BC0008C9C95869584958295801200556E95968D
:101BD0009594959295908C988C9A8C8C5550A3ECFA
:101BE0000CF08C8C8C9C8C9C8C8C55506FEC0CF07D
:101BF0008C8C8C9C95869584958295801200000E25
:101C0000536E5350050D040EF324D96E010EF420CB
:101C1000DA6EDF6A532A0E0E5364F3D7820ED56E46
:101C2000FE0ED76EC70ED66EF294F28A12004150A5
:101C30006A24D96E000E6B20DA6EDF50D8B40BD058
:101C400041506A24D96E000E6B20DA6EDF5083ECAF
:101C50000BF0412A120021EC0FF0120056C036F0B2
:101C60003650020DF350DC0FD96EDA6A54C0DFFF34
:101C70003650020DF350DD0FD96EDA6A55C0DFFF22
:101C80004E5059EC0EF01200546E080E556E000EB8
:101C9000566ED89054345634566ED89054365350AD
:101CA000565CD8A002D05350565E552EF2D75650EF
:101CB0001200536EF29E5350050D000EF324D96EA0
:101CC000010EF420DA6E1DC0DEFF1EC0DEFF1FC055
:101CD000DEFF20C0DEFFF28E12003C50D8B404D0EC
:101CE000050EE8EC0EF003D03D0EE8EC0EF0000E11
:101CF000266E000E256E000E3E6E000E3F6E120028
:101D000081B605D0000E546E000E536E120081B2E3
:101D100005D0000E546E010E536E1200000E546E6C
:101D2000020E536E1200F19E9382939493869398C1
:101D3000938A939C939E4D0E536E546A2DEC0DF036
:101D40004C0E536E546A2DEC0DF01200546E54C0BC
:101D5000A9FF53C0A8FFA69EA69CA684F29E550E7E
:101D6000A76EAA0EA76EA682F28EA694120081B26A
:101D700004D02150030DF350120081B604D021503D
:101D8000030DF32812002150030DF350020F12002F
:101D900074EC0DF0010EE6EC0DF0000E616E000E1D
:101DA000606E000E636E0C0E626EB3EC0DF01200EE
:101DB00092809282030EC26E0C0EC16E440EC06EF3
:101DC000000E496EC282C284C296000E4B6E120093
:101DD000686EC8EC0EF0000E426E42C041F0000E7C
:101DE000246E000E236E6850A0EC0FF0120080EC01
:101DF0000EF02150030DF350010F5324556E55C0C2
:101E0000F6FF020EF76E0800F5501200000EB06EDD
:101E1000AC0EAF6EB886B890AC84AC98AC8AAB8E82
:101E2000AB88948C948E1200090E2C6004D02CC0C8
:101E300053F0546A04D0000E546E080E536E535083
:101E40001200422A010E616E000E4BEC0AF0000EE9
:101E5000416E000E246E000E236E12004E0E536E65
:101E6000546A2DEC0DF0000E0001DC6F000EDD6FEA
:101E7000000E376E1200000E536E3050D8B405D0ED
:101E80003304D8A402D0010E536E53501200000E3A
:101E9000536E4950D8B405D04A50D8A402D0010E90
:101EA000536E53501200000E536E4950D8B405D0F3
:101EB0004A04D8A402D0010E536E535012009494D9
:101EC000500E536E546A2DEC0DF04F0E536E546A43
:101ED0002DEC0DF01200FE0ED76EC70ED66EF294EA
:101EE000010E1D26000E1E221F22202212003B0E74
:101EF0000001DD19D8A404D0000EDD6FDC2B120028
:101F0000DD2B1200520E536E546A2DEC0DF0510E63
:101F1000536E546A2DEC0DF012004E4F2052454383
:101F20004F52445320464F554E4400000000546E1B
:101F3000505059EC0EF054C038F0010E396E1200BA
:101F4000536E53C03AF0180E3D6E000E3B6E1200F9
:101F5000536E53C02DF0000E2B6E320E2E6E1200FB
:101F6000536E53C0A9FFA69EA69CA680A85012003F
:101F70002E50D8A402D0010E1200000E12003750CD
:101F8000D8A402D0010E1200000E1200536E53C0EE
:101F90002DF01E0E2E6E1200C294C296C288040E40
:101FA0004B6E1200C284C296C298000E4B6E120095
:101FB000536E53C036F0080E376E1200ACA202D03A
:101FC000010E1200000E12009EAA02D0010E120095
:101FD000000E120074EC0DF00E0EE6EC0DF0120087
:101FE00074EC0DF00C0EE6EC0DF01200000E2C6EF1
:101FF000280E2E6E1200DCC053F0DDC054F012002B
:020000040020DA
:08000000FFFFFFFFFFFFFFFF00
:020000040030CA
:0E000000FF06191EFF0181FF03C003E003404D
:00000001FF
